{
  "contractName": "TokenEscrow",
  "abi": [
    {
      "constant": false,
      "inputs": [
        {
          "name": "recipient",
          "type": "address"
        }
      ],
      "name": "transferPrimary",
      "outputs": [],
      "payable": false,
      "stateMutability": "nonpayable",
      "type": "function"
    },
    {
      "constant": true,
      "inputs": [],
      "name": "primary",
      "outputs": [
        {
          "name": "",
          "type": "address"
        }
      ],
      "payable": false,
      "stateMutability": "view",
      "type": "function"
    },
    {
      "constant": true,
      "inputs": [],
      "name": "token",
      "outputs": [
        {
          "name": "",
          "type": "address"
        }
      ],
      "payable": false,
      "stateMutability": "view",
      "type": "function"
    },
    {
      "inputs": [
        {
          "name": "_token",
          "type": "address"
        }
      ],
      "payable": false,
      "stateMutability": "nonpayable",
      "type": "constructor"
    },
    {
      "anonymous": false,
      "inputs": [
        {
          "indexed": true,
          "name": "payee",
          "type": "address"
        },
        {
          "indexed": false,
          "name": "tokenAmount",
          "type": "uint256"
        }
      ],
      "name": "Deposited",
      "type": "event"
    },
    {
      "anonymous": false,
      "inputs": [
        {
          "indexed": true,
          "name": "payee",
          "type": "address"
        },
        {
          "indexed": false,
          "name": "tokenAmount",
          "type": "uint256"
        }
      ],
      "name": "Withdrawn",
      "type": "event"
    },
    {
      "anonymous": false,
      "inputs": [
        {
          "indexed": false,
          "name": "recipient",
          "type": "address"
        }
      ],
      "name": "PrimaryTransferred",
      "type": "event"
    },
    {
      "constant": true,
      "inputs": [
        {
          "name": "_payee",
          "type": "address"
        }
      ],
      "name": "depositsOf",
      "outputs": [
        {
          "name": "",
          "type": "uint256"
        }
      ],
      "payable": false,
      "stateMutability": "view",
      "type": "function"
    },
    {
      "constant": false,
      "inputs": [
        {
          "name": "_payee",
          "type": "address"
        },
        {
          "name": "_amount",
          "type": "uint256"
        }
      ],
      "name": "deposit",
      "outputs": [],
      "payable": false,
      "stateMutability": "nonpayable",
      "type": "function"
    },
    {
      "constant": false,
      "inputs": [
        {
          "name": "_payee",
          "type": "address"
        }
      ],
      "name": "withdraw",
      "outputs": [],
      "payable": false,
      "stateMutability": "nonpayable",
      "type": "function"
    }
  ],
  "bytecode": "0x608060405234801561001057600080fd5b5060405160208061071f8339810180604052602081101561003057600080fd5b505160008054600160a060020a03191633179081905560408051600160a060020a03929092168252517f4101e71e974f68df5e9730cc223280b41654676bbb052cdcc735c3337e64d2d99181900360200190a1600160a060020a038116151561009857600080fd5b60028054600160a060020a031916600160a060020a0392909216919091179055610658806100c76000396000f3fe608060405234801561001057600080fd5b50600436106100625760003560e01c80632348238c1461006757806347e7ef241461008f57806351cff8d9146100bb578063c6dbdf61146100e1578063e3a9db1a14610105578063fc0c546a1461013d575b600080fd5b61008d6004803603602081101561007d57600080fd5b5035600160a060020a0316610145565b005b61008d600480360360408110156100a557600080fd5b50600160a060020a0381351690602001356101d8565b61008d600480360360208110156100d157600080fd5b5035600160a060020a031661028e565b6100e96103c0565b60408051600160a060020a039092168252519081900360200190f35b61012b6004803603602081101561011b57600080fd5b5035600160a060020a03166103cf565b60408051918252519081900360200190f35b6100e96103ea565b600054600160a060020a0316331461015c57600080fd5b600160a060020a038116151561017157600080fd5b6000805473ffffffffffffffffffffffffffffffffffffffff1916600160a060020a03838116919091179182905560408051929091168252517f4101e71e974f68df5e9730cc223280b41654676bbb052cdcc735c3337e64d2d9916020908290030190a150565b600054600160a060020a031633146101ef57600080fd5b600160a060020a038216600090815260016020526040902054610218908263ffffffff6103f916565b600160a060020a0380841660009081526001602052604090209190915560025461024b911633308463ffffffff61041216565b604080518281529051600160a060020a038416917f2da466a7b24304f47e87fa2e1e5a81b9831ce54fec19055ce277ca2f39ba42c4919081900360200190a25050565b600054600160a060020a031633146102a557600080fd5b600160a060020a038082166000908152600160209081526040918290205460025483517f70a082310000000000000000000000000000000000000000000000000000000081523060048201529351919485949116926370a0823192602480840193829003018186803b15801561031a57600080fd5b505afa15801561032e573d6000803e3d6000fd5b505050506040513d602081101561034457600080fd5b5051101561034e57fe5b600160a060020a0380831660009081526001602052604081205560025461037d9116838363ffffffff6104a016565b604080518281529051600160a060020a038416917f7084f5476618d8e60b11ef0d7d3f06914655adb8793e28ff7f018d4c76d505d5919081900360200190a25050565b600054600160a060020a031690565b600160a060020a031660009081526001602052604090205490565b600254600160a060020a031681565b60008282018381101561040b57600080fd5b9392505050565b60408051600160a060020a0385811660248301528416604482015260648082018490528251808303909101815260849091019091526020810180517bffffffffffffffffffffffffffffffffffffffffffffffffffffffff167f23b872dd0000000000000000000000000000000000000000000000000000000017905261049a908590610525565b50505050565b60408051600160a060020a038416602482015260448082018490528251808303909101815260649091019091526020810180517bffffffffffffffffffffffffffffffffffffffffffffffffffffffff167fa9059cbb00000000000000000000000000000000000000000000000000000000179052610520908490610525565b505050565b61053782600160a060020a0316610624565b151561054257600080fd5b6000606083600160a060020a0316836040518082805190602001908083835b602083106105805780518252601f199092019160209182019101610561565b6001836020036101000a0380198251168184511680821785525050505050509050019150506000604051808303816000865af19150503d80600081146105e2576040519150601f19603f3d011682016040523d82523d6000602084013e6105e7565b606091505b50915091508115156105f857600080fd5b60008151111561049a5780806020019051602081101561061757600080fd5b5051151561049a57600080fd5b6000903b119056fea165627a7a723058200aca63c3510cbe26065317816f81d09bcf0908d3425e172e82e66bbf2c80d0920029",
  "source": "\npragma solidity ^0.5.2;\n\nimport \"openzeppelin-solidity/contracts/math/SafeMath.sol\";\nimport \"openzeppelin-solidity/contracts/ownership/Secondary.sol\";\nimport \"openzeppelin-solidity/contracts/token/ERC20/ERC20.sol\";\nimport \"openzeppelin-solidity/contracts/token/ERC20/SafeERC20.sol\";\n\n/**\n * @title TokenEscrow\n * @dev Holds tokens destinated to a payee until they withdraw them.\n * The contract that uses the TokenEscrow as its payment method\n * should be its owner, and provide public methods redirecting\n * to the TokenEscrow's deposit and withdraw.\n * Moreover, the TokenEscrow should also be allowed to transfer\n * tokens from the payer to itself.\n */\ncontract TokenEscrow is Secondary {\n  using SafeMath for uint256;\n  using SafeERC20 for ERC20;\n\n  event Deposited(address indexed payee, uint256 tokenAmount);\n  event Withdrawn(address indexed payee, uint256 tokenAmount);\n\n  mapping(address => uint256) private deposits;\n\n  ERC20 public token;\n\n  constructor (ERC20 _token) public {\n    require(address(_token) != address(0));\n    token = _token;\n  }\n\n  function depositsOf(address _payee) public view returns (uint256) {\n    return deposits[_payee];\n  }\n\n  /**\n  * @dev Puts in escrow a certain amount of tokens as credit to be withdrawn.\n  * @param _payee The destination address of the tokens.\n  * @param _amount The amount of tokens to deposit in escrow.\n  */\n  function deposit(address _payee, uint256 _amount) public onlyPrimary {\n    deposits[_payee] = deposits[_payee].add(_amount);\n    token.safeTransferFrom(msg.sender, address(this), _amount);\n    emit Deposited(_payee, _amount);\n  }\n\n  /**\n  * @dev Withdraw accumulated tokens for a payee.\n  * @param _payee The address whose tokens will be withdrawn and transferred to.\n  */\n  function withdraw(address _payee) public onlyPrimary {\n    uint256 payment = deposits[_payee];\n    assert(token.balanceOf(address(this)) >= payment);\n    deposits[_payee] = 0;\n    token.safeTransfer(_payee, payment);\n    emit Withdrawn(_payee, payment);\n  }\n\n}",
  "sourcePath": "/Users/jpgonzalezra/Documents/Code/escrow/contracts/TokenEscrow.sol",
  "compiler": {
    "name": "solc",
    "version": "0.5.2+commit.1df8f40c.Emscripten.clang"
  },
  "schemaVersion": "3.0.1",
  "updatedAt": "2019-05-26T18:56:31.324Z",
  "devdoc": {
    "details": "Holds tokens destinated to a payee until they withdraw them. The contract that uses the TokenEscrow as its payment method should be its owner, and provide public methods redirecting to the TokenEscrow's deposit and withdraw. Moreover, the TokenEscrow should also be allowed to transfer tokens from the payer to itself.",
    "methods": {
      "deposit(address,uint256)": {
        "details": "Puts in escrow a certain amount of tokens as credit to be withdrawn.",
        "params": {
          "_amount": "The amount of tokens to deposit in escrow.",
          "_payee": "The destination address of the tokens."
        }
      },
      "primary()": {
        "return": "the address of the primary."
      },
      "transferPrimary(address)": {
        "details": "Transfers contract to a new primary.",
        "params": {
          "recipient": "The address of new primary."
        }
      },
      "withdraw(address)": {
        "details": "Withdraw accumulated tokens for a payee.",
        "params": {
          "_payee": "The address whose tokens will be withdrawn and transferred to."
        }
      }
    },
    "title": "TokenEscrow"
  },
  "userdoc": {
    "methods": {}
  }
}